:100000000C942A000C9447000C9447000C94470071
:100010000C94E2070C9447000C9447000C940811D0
:100020000C9447000C9447000C9447000C94470034
:100030000C9447000C9447000C9447000C94470024
:100040000C9447000C9447000C9447000C94470014
:100050000C94470011241FBECFE5D8E0DEBFCDBF12
:1000600013E0A0E6B0E0EAEBFDE202C005900D92DD
:10007000AC31B107D9F713E0ACE1B3E001C01D9298
:10008000AF33B107E1F70E943D110C94DB160C94DD
:100090000000A0E0B0E0EFE4F0E00C94D213DC014B
:1000A0002B01FA019C91923008F439C1EB0188814F
:1000B000823008F433C1943069F4843009F02FC1E0
:1000C00011969C9111978981981709F428C1AFE086
:1000D000B2E025C1843009F421C18230A9F4923004
:1000E00009F01DC19A01AD0188E0EA010990AE0155
:1000F000E90109929E018150C1F7E20189811196BF
:100100009C918923818308C1923009F407C112961A
:100110002D903C901397EB018A819B811496AD90B2
:10012000BD90CD90DC901797EC80FD800E811F81F3
:100130009101281B390BB90137FF04C066277727C7
:10014000621B730B603271050CF061C0121613064E
:100150006CF537014801062E04C096948794779475
:1001600067940A94D2F721E030E040E050E004C008
:10017000220F331F441F551F6A95D2F7215030407C
:10018000404050402E213F2140235123211531056D
:100190004105510521F021E030E040E050E07901D7
:1001A0008A01E628F728082919293CC0232BD1F118
:1001B000260E371E35014601062E04C096948794FC
:1001C000779467940A94D2F721E030E040E050E061
:1001D00004C0220F331F441F551F6A95D2F72150C8
:1001E0003040404050402A213B214C215D212115C7
:1001F00031054105510521F021E030E040E050E0BB
:1002000059016A01A628B728C828D9280BC0821529
:1002100093052CF01C01AA24BB24650103C0EE2425
:10022000FF24870111969C91D20111968C91981709
:1002300009F445C0992339F0A80197012A193B090F
:100240004C095D0906C0A60195012E193F09400B16
:10025000510B57FD08C011823382228224833583DB
:10026000468357831DC081E08183338222828827A1
:100270009927DC01821B930BA40BB50B8483958318
:10028000A683B7830DC0220F331F441F551F24833D
:100290003583468357838281938101979383828339
:1002A0002481358146815781DA01C9010197A1096D
:1002B000B1098F5F9F4FAF4FBF4328F30BC09183AE
:1002C00033822282EA0CFB1C0C1D1D1DE482F58288
:1002D0000683178383E0808324813581468157819B
:1002E00057FF1AC0C901AA2797FDA095BA2F8170A0
:1002F0009070A070B0705695479537952795822BD2
:10030000932BA42BB52B84839583A683B7838281FB
:100310009381019693838283DF0101C0D201CD01D5
:10032000CDB7DEB7E2E10C94EE13A0E2B0E0EBE96A
:10033000F1E00C94DE1369837A838B839C832D8395
:100340003E834F835887E9E0EE2EF12CEC0EFD1E24
:10035000CE010196B7010E94C3048E010F5E1F4FAC
:10036000CE010596B8010E94C3048A8991E08927CD
:100370008A8BC701B801AE01475E5F4F0E944900FA
:100380000E94EE03A096E6E00C94FA13A0E2B0E01F
:10039000ECECF1E00C94DE1369837A838B839C830D
:1003A0002D833E834F835887F9E0EF2EF12CEC0E1E
:1003B000FD1ECE010196B7010E94C3048E010F5E9F
:1003C0001F4FCE010596B8010E94C304C701B801B2
:1003D000AE01475E5F4F0E9449000E94EE03A09667
:1003E000E6E00C94FA13A0E2B0E0E9EFF1E00C943F
:1003F000D21369837A838B839C832D833E834F83BF
:100400005887CE010196BE01675F7F4F0E94C304EB
:10041000CE010596BE016F5E7F4F0E94C304998591
:10042000923088F089898230C8F0943019F4823093
:1004300051F404C0843029F4923081F48FE092E0CA
:10044000C6C0923049F420E09A858A89981321E049
:100450002A87CE010996BBC0823049F420E09A85F4
:100460008A89981321E02A8BCE014196B0C02D8451
:100470003E844F8458886D887E888F88988CEE24BF
:10048000FF248701AA24BB24650140E050E060E01E
:1004900070E0E0E0F0E0C10181709070892BE9F03C
:1004A000E60CF71C081D191D9A01AB012A0D3B1D16
:1004B0004C1D5D1D80E090E0A0E0B0E0E614F70484
:1004C0000805190520F481E090E0A0E0B0E0BA0151
:1004D000A901480F591F6A1F7B1FAA0CBB1CCC1C0B
:1004E000DD1C97FE08C081E090E0A0E0B0E0A82A03
:1004F000B92ACA2ADB2A3196E032F10549F0660CA6
:10050000771C881C991C5694479437942794C3CF22
:10051000FA85EA892B893C898B859C85280F391FB0
:100520002E5F3F4F17C0CA0181709070892B61F018
:1005300016950795F794E79480E090E0A0E0B0E886
:10054000E82AF92A0A2B1B2B76956795579547952C
:100550002F5F3F4F77FDE7CF0CC0440F551F661F3D
:10056000771F17FD4160EE0CFF1C001F111F21506B
:100570003040403090E0590790E0690790E47907F7
:1005800060F32B8F3C8FDB01CA018F779070A070D6
:10059000B07080349105A105B10561F447FD0AC032
:1005A000E114F1040105110529F0405C5F4F6F4F24
:1005B0007F4F40781A8EFE1711F081E08A8F4D8FA1
:1005C0005E8F6F8F78A383E0898FCE0149960E945A
:1005D000EE03A096E2E10C94EE13A8E0B0E0E3EFA6
:1005E000F2E00C94DB139B01AC0183E08983DA0118
:1005F000C9018827B7FD83959927AA27BB27B82E5D
:10060000211531054105510519F482E089833AC06D
:100610008823A9F0203080E0380780E0480780E890
:10062000580729F460E070E080E09FEC30C0EE24D1
:10063000FF248701E21AF30A040B150B02C07901AB
:100640008A018EE1C82ED12CDC82CB82ED82FE8223
:100650000F831887C801B7010E949F0301971816DE
:10066000190684F4082E04C0EE0CFF1C001F111F95
:100670000A94D2F7ED82FE820F831887C81AD90A2E
:10068000DC82CB82BA82CE0101960E94EE032896CC
:10069000E9E00C94F713ACE0B0E0E1E5F3E00C9492
:1006A000E21369837A838B839C83CE010196BE011A
:1006B0006B5F7F4F0E94C3048D81823061F1823075
:1006C00050F1843021F48E81882351F12EC02F8186
:1006D000388537FD20C06E812F3131051CF066232F
:1006E000F9F023C08EE190E0821B930B29853A85B7
:1006F0004B855C8504C056954795379527958A9517
:10070000D2F76623B1F050954095309521953F4F33
:100710004F4F5F4F0EC020E030E040E050E009C096
:100720002FEF3FEF4FEF5FE704C020E030E040E005
:1007300050E8B901CA012C96E2E00C94FE13EF9246
:10074000FF920F931F937B018C0180E0E81680E0FD
:10075000F80681E0080780E0180788F48FEFE816B4
:10076000F1040105110531F028F088E090E0A0E0E7
:10077000B0E017C080E090E0A0E0B0E012C080E000
:10078000E81680E0F80680E0080781E0180728F006
:1007900088E190E0A0E0B0E004C080E190E0A0E05B
:1007A000B0E020E230E040E050E0281B390B4A0B7B
:1007B0005B0B04C016950795F794E7948A95D2F7DA
:1007C000F701E95EFD4F8081281B3109410951097C
:1007D000C9011F910F91FF90EF900895DF92EF9262
:1007E000FF920F931F93FC01E480F580068117812F
:1007F000D1808081823048F480E090E0A0E1B0E0D8
:10080000E82AF92A0A2B1B2BA5C0843009F49FC0C3
:10081000823021F4EE24FF24870105C0E114F104A5
:100820000105110519F4E0E0F0E096C062817381E2
:100830009FEF623879070CF05BC022E83FEF261B80
:10084000370B2A3131052CF020E030E040E050E059
:100850002AC0B801A701022E04C076956795579566
:1008600047950A94D2F781E090E0A0E0B0E004C0A0
:10087000880F991FAA1FBB1F2A95D2F70197A109BC
:10088000B1098E219F21A023B1230097A105B105B5
:1008900021F081E090E0A0E0B0E09A01AB01282BCC
:1008A000392B4A2B5B2BDA01C9018F779070A0702E
:1008B000B07080349105A105B10539F427FF09C056
:1008C000205C3F4F4F4F5F4F04C0215C3F4F4F4F65
:1008D0005F4FE0E0F0E02030A0E03A07A0E04A07F8
:1008E000A0E45A0710F0E1E0F0E079018A0127C0A6
:1008F0006038710564F5FB01E158FF4FD801C7016D
:100900008F779070A070B07080349105A105B1050B
:1009100039F4E7FE0DC080E490E0A0E0B0E004C050
:100920008FE390E0A0E0B0E0E80EF91E0A1F1B1F65
:1009300017FF05C016950795F794E794319687E061
:1009400016950795F794E7948A95D1F705C0EE249C
:10095000FF248701EFEFF0E06E2F6795662767951C
:10096000902F9F77D794DD24D7948E2F8695492F8B
:10097000462B582F5D29B701CA011F910F91FF9097
:10098000EF90DF900895FC01DB01408151812281CD
:10099000622F6F7770E0221F2227221F9381892FF9
:1009A000880F822B282F30E0991F9927991F1196C5
:1009B0009C93119721153105A9F541155105610544
:1009C000710511F482E037C082E89FEF13969C9383
:1009D0008E9312979A01AB0167E0220F331F441FD9
:1009E000551F6A95D1F783E08C930DC0220F331FFA
:1009F000441F551F12968D919C9113970197139642
:100A00009C938E931297203080E0380780E048074F
:100A100080E4580758F314962D933D934D935C93BF
:100A2000179708952F3F310579F441155105610558
:100A3000710519F484E08C93089564FF03C081E08C
:100A40008C9312C01C9210C02F57304013963C93C9
:100A50002E93129783E08C9387E0440F551F661FF7
:100A6000771F8A95D1F7706414964D935D936D93BB
:100A70007C931797089590913D03813039F4973115
:100A800011F480E009C0892F8F5F06C0992311F40B
:100A900087E102C0892F815080933D030895909192
:100AA0003C03813039F49B3311F480E009C0892F75
:100AB0008F5F06C0992311F48BE302C0892F815008
:100AC00080933C03089510921C0381E080931703E8
:100AD00010921D0310921E0310921F0308951F937E
:100AE0000E94300E182F0E944E0E282F80E69AEE9C
:100AF0000197F1F780913D031817D9F580913C03D8
:100B00002817B9F580911D03813099F583E060E0E5
:100B100041E00E94B40C80E060E040E650E00E94BA
:100B2000CB1081E060E041E750E00E94CB1081E013
:100B300063E00E94280D882371F710921D0380E660
:100B40009AEE0197F1F70E94B41011E010931F0381
:100B500083E060E040E00E94B40C0E94B410109268
:100B60001C031093170310921D0310921E03109282
:100B70001F031F91089580E06BE00E94B8108091E0
:100B80003D038A3018F480E30E94F00E80913D030B
:100B900090E00E94FF0F8AE30E94F00E80913C03D8
:100BA0008A3018F480E30E94F00E80913C0390E0BC
:100BB0000E94FF0F08950F931F93182F062F0E9476
:100BC000B41010933D0300933C0380E060E042E8E2
:100BD00050E00E94CB1080E06BE04EE850E00E94B5
:100BE000CB1080913D038A3020F480E090E00E9499
:100BF000FF0F80913D0390E00E94FF0F8AE30E9467
:100C0000F00E80913C038A3020F480E090E00E9456
:100C1000FF0F80913C0390E00E94FF0F1F910F9106
:100C20000895FF920F931F93FC01DB0180913D0318
:100C3000808380913C038C930E94300EF82E0E949A
:100C40004E0E282FE0E6FAEE3197F1F780913C0343
:100C5000821718F0082F021B0CC090913D039923B6
:100C600011F497E101C09150082F045C021B90938E
:100C70003D0380913D038F1510F0182F02C0182FEF
:100C8000185E1F190E94B41080E060E044E950E053
:100C90000E94CB1081E060E00E94B810812F90E0AC
:100CA0000E94FF0F84EA90E00E94830F81E068E0D9
:100CB0000E94B810802F90E00E94FF0F89EA90E018
:100CC0000E94830F80E197E228EC30E0F901319730
:100CD000F1F70197D9F70E94B41081E080931F03C8
:100CE0001F910F91FF9008958FE085BD8DE783BD23
:100CF00089B7806889BF14BC0895109220031092B0
:100D000021031092220310922303109225030E94C4
:100D1000EE0E0895B0990AC08091240390E00196E8
:100D200063E070E00E94AB1380932403B39903C087
:100D30008AE080932403B49903C08BE0809324035A
:100D400080912403823009F497C0833030F48823E3
:100D500059F0813009F0FAC04BC08A3009F4D0C094
:100D60008B3009F0F3C0E3C0B1990AC08091200331
:100D700090E0019668E170E00E94AB13809320033D
:100D8000B2990BC080912003882311F487E103C03E
:100D90008091200381508093200380E066E00E94D0
:100DA000B8108EEA90E00E94830F8CED95E028EC5D
:100DB00030E0F9013197F1F70197D9F780E066E06B
:100DC0000E94B810809120038A3018F480E30E94BA
:100DD000F00E8091200390E00E94FF0F8CED95E0D3
:100DE00028EC30E0F9013197F1F70197D9F7AEC05F
:100DF000B1990AC08091210390E001966CE370E004
:100E00000E94AB1380932103B2990BC08091210300
:100E1000882311F48BE303C08091210381508093D8
:100E2000210380E069E00E94B8108EEA90E00E9401
:100E3000830F8CED95E028EC30E0F9013197F1F764
:100E40000197D9F780E069E00E94B81080912103F2
:100E50008A3018F480E30E94F00E8091210390E024
:100E60000E94FF0F8CED95E028EC30E0F9013197FE
:100E7000F1F70197D9F76AC0B1990AC080912203AE
:100E800090E001966CE370E00E94AB138093220324
:100E9000B2990BC080912203882311F48BE303C025
:100EA0008091220381508093220380E06CE00E94B5
:100EB000B8108EEA90E00E94830F8CED95E028EC4C
:100EC00030E0F9013197F1F70197D9F780E06CE054
:100ED0000E94B810809122038A3018F480E30E94A7
:100EE000F00E8091220390E00E94FF0F8CED95E0C0
:100EF00028EC30E0F9013197F1F70197D9F726C0D6
:100F00000E94B41080E061E041EB50E00E94CB1001
:100F100080E197E228EC30E0F9013197F1F7019791
:100F2000D9F70E94B4101092240381E008950E9422
:100F3000B4101092240388E893E128EC30E0F90122
:100F40003197F1F70197D9F782E0089580E008958D
:100F5000809125038823A9F180912303882389F5B3
:100F600080912203882321F080912203815017C0B1
:100F700080912103882339F080912103815080934F
:100F800021038BE30CC080912003882359F08091CA
:100F900020038150809320038BE38093210380936F
:100FA000220308951092200380912003809321034F
:100FB000809121038093220381E0809323030E9488
:100FC000EC0E08951F920F920FB60F9211242F93DB
:100FD0003F934F935F936F937F938F939F93AF93C1
:100FE000BF93EF93FF93809126039091270301967F
:100FF00090932703809326038091260390912703E3
:10100000CE9730F010922703109226030E94A80773
:10101000FF91EF91BF91AF919F918F917F916F91D0
:101020005F914F913F912F910F900FBE0F901F90A6
:101030001895B09903C081E080933A03B19903C039
:1010400082E080933A03B29903C083E080933A032D
:10105000B39903C084E080933A030895B49B02C01F
:1010600080E0089584EF91E028EC30E0F9013197B9
:10107000F1F70197D9F786B382958F7080958170CB
:10108000089517BA8FE388BBD79A8BB380788BBB50
:10109000BE9AC698089580E060E040EC50E00E945F
:1010A000CB1081E060E04FEC50E00E94CB1008953F
:1010B00080E060E040EE50E00E94CB1081E060E014
:1010C0004BEE50E00E94CB1081E067E041EF50E032
:1010D0000E94CB10089580E060E04AEF50E00E944B
:1010E000CB1080E066E00E94B8100E94300E8A307B
:1010F00018F480E30E94F00E0E94300E90E00E94EF
:10110000FF0F81E091E00E94830F0E944E0E8A3013
:1011100018F480E30E94F00E0E944E0E90E00E94B0
:10112000FF0F81E091E00E94830F0E946C0E8A30D5
:1011300018F480E30E94F00E0E946C0E90E00E9472
:10114000FF0F089580912903873109F055C08091E0
:101150002A038B3309F050C080912B038B3309F0A5
:101160004BC0E0912C03EF5FE0932C0340912D03E3
:10117000463069F0473028F4423059F0443029F4C1
:1011800006C0493021F04B3011F08FE11BC08EE1D9
:1011900019C050912E03252F30E0C9018370907043
:1011A000892B31F4852F64E60E949F13992349F41B
:1011B000C90160E971E00E94AB13892B11F08CE149
:1011C00001C08DE18E1780F491E090932C03842F61
:1011D0008F5F80932D038D3038F090932D03809195
:1011E0002E038F5F80932E0380912C0360912D033B
:1011F00040912E030E948A0E08950E94B41080E050
:1012000062E043E051E00E94CB1088E99AE328ECC9
:1012100030E0F9013197F1F70197D9F70E94B41046
:1012200080E060E04FE051E00E94CB1080E068E099
:1012300047E151E00E94CB1081E060E04FE151E0D6
:101240000E94CB1081E06CE04BE251E00E94CB1099
:101250000895B0990AC08091280390E0019666E055
:1012600070E00E94AB1380932803B39903C08AE017
:101270008093280380912803833009F4D6C08430FA
:1012800038F4813009F44FC0823008F08DC00AC0B4
:10129000853009F44EC1853008F409C18A3009F05F
:1012A000BDC188C1B19909C0809129038F5F809326
:1012B0002903883110F010922903B29909C0809156
:1012C0002903882311F487E101C081508093290309
:1012D00080E066E00E94B81080E391E00E94830FF6
:1012E0008CED95E028EC30E0F9013197F1F70197AA
:1012F000D9F780E066E00E94B810809129038A3017
:1013000018F480E30E94F00E8091290390E00E947F
:10131000FF0F8CED95E028EC30E0F9013197F1F703
:101320000197D9F77BC1B19909C080912A038F5FDA
:1013300080932A038C3310F010922A03B29909C0CB
:1013400080912A03882311F48BE301C0815080939C
:101350002A0380E069E00E94B81080E391E00E94D7
:10136000830F8CED95E028EC30E0F9013197F1F72F
:101370000197D9F780E069E00E94B81080912A03B4
:101380008A3018F480E30E94F00E80912A0390E0E6
:101390000E94FF0F8CED95E028EC30E0F9013197C9
:1013A000F1F70197D9F73AC1B19909C080912B03A0
:1013B0008F5F80932B038C3310F010922B03B29924
:1013C00009C080912B03882311F48BE301C0815065
:1013D00080932B0380E06CE00E94B81080E391E0E2
:1013E0000E94830F8CED95E028EC30E0F9013197F5
:1013F000F1F70197D9F780E06CE00E94B810809176
:101400002B038A3018F480E30E94F00E80912B03A6
:1014100090E00E94FF0F8CED95E028EC30E0F901A0
:101420003197F1F70197D9F7F9C0B1990AC08091C6
:101430002C038F5F80932C03803218F081E080931F
:101440002C03B29909C080912C03823010F0815096
:1014500001C08FE180932C0381E066E00E94B81008
:1014600080E391E00E94830F8CED95E028EC30E062
:10147000F9013197F1F70197D9F781E066E00E9411
:10148000B81080912C038A3018F480E30E94F00E8B
:1014900080912C0390E00E94FF0F8CED95E028ECEA
:1014A00030E0F9013197F1F70197D9F7B7C0B19959
:1014B0000AC080912D038F5F80932D038D3018F02B
:1014C00081E080932D03B29909C080912D03823071
:1014D00010F0815001C08CE080932D0381E069E021
:1014E0000E94B81080E391E00E94830F8CED95E09C
:1014F00028EC30E0F9013197F1F70197D9F781E055
:1015000069E00E94B81080912D038A3018F480E3BE
:101510000E94F00E80912D0390E00E94FF0F8CED51
:1015200095E028EC30E0F9013197F1F70197D9F710
:1015300075C0B19909C080912E038F5F80932E03EF
:10154000843610F010922E03B29909C080912E03B8
:10155000882311F483E601C0815080932E0381E03B
:101560006CE00E94B81080E391E00E94830F8CED44
:1015700095E028EC30E0F9013197F1F70197D9F7C0
:1015800081E06CE00E94B81080912E038A3018F43C
:1015900080E30E94F00E80912E0390E00E94FF0FE6
:1015A0008CED95E028EC30E0F9013197F1F70197E7
:1015B000D9F734C00E94B41080E060E043E351E00A
:1015C0000E94CB108091290360912A0340912B0344
:1015D0000E94AD0E80912C0360912D0340912E034B
:1015E0000E948A0E0E94EC0E88E893E128EC30E01D
:1015F000F9013197F1F70197D9F70E94EE0E88E9CA
:101600009AE328EC30E0F9013197F1F70197D9F727
:101610000E94B4101092280381E0089580E008959C
:1016200081E060E042E451E00E94CB1081E066E09E
:101630000E94B8100E94120E8A3018F480E30E94B3
:10164000F00E0E94120E90E00E94FF0F89E491E0DC
:101650000E94830F0E94F40D8A3018F480E30E94E8
:10166000F00E0E94F40D90E00E94FF0F89E491E0DB
:101670000E94830F0E94D60D8A3018F480E30E94E6
:10168000F00E0E94D60D90E00E94FF0F81E06EE008
:1016900040E351E00E94CB1008951F930E94100B6D
:1016A00080E060E04AEF50E00E94CB1080E066E00E
:1016B0000E94B8100E94300E182F882319F48CE075
:1016C00090E009C08C3070F48A3018F480E30E94F6
:1016D000F00E812F90E00E94FF0F80E06EE04BE45F
:1016E00051E013C08C3019F48CE090E008C01C501D
:1016F0001A3018F480E30E94F00E812F90E00E94CF
:10170000FF0F80E06EE04EE451E00E94CB1080E0DD
:1017100068E00E94B8108AE30E94F00E80E069E061
:101720000E94B8100E944E0E8A3018F480E30E9486
:10173000F00E0E944E0E90E00E94FF0F81E091E0BB
:101740000E94830F80E06CE00E94B8100E946C0E33
:101750008A3018F480E30E94F00E0E946C0E90E034
:101760000E94FF0F1F91089580912F038F5F809338
:101770002F038A30A8F110922F03809130038F5FDE
:1017800080933003863060F11092300380913103F2
:101790008F5F809331038A3018F11092310380916A
:1017A00032038F5F809332038630D0F01092320381
:1017B000909133039F5F909333039A3030F480917C
:1017C0003403823069F4943058F0109233038091DE
:1017D00034038F5F80933403833010F0109234030E
:1017E00080912F03813011F4809339030895109272
:1017F0002F03109230031092310310923203109293
:1018000033031092340308950F931F9380E064E034
:101810000E94B8108091340390E00E94FF0F8091E5
:10182000330390E00E94FF0F01E511E0C8010E9420
:10183000830F8091320390E00E94FF0F809131036B
:1018400090E00E94FF0FC8010E94830F8091300337
:1018500090E00E94FF0F80912F0390E00E94FF0F05
:101860001F910F91089580E063E043E551E00E94ED
:10187000CB1081E060E04DE551E00E94CB1008956F
:10188000683008F070C0843008F06DC0813009F114
:10189000813030F08230B1F1833009F064C04BC048
:1018A000413059F42AB381E090E002C0880F991FBB
:1018B0006A95E2F7282B2ABB08952AB381E090E0CD
:1018C00002C0880F991F6A95E2F7809582238ABB30
:1018D0000895413059F427B381E090E002C0880FA9
:1018E000991F6A95E2F7282B27BB089527B381E05B
:1018F00090E002C0880F991F6A95E2F780958223D5
:1019000087BB0895413059F424B381E090E002C0D0
:10191000880F991F6A95E2F7282B24BB089524B3FA
:1019200081E090E002C0880F991F6A95E2F78095E8
:10193000822384BB0895413059F421B381E090E0C3
:1019400002C0880F991F6A95E2F7282B21BB0895E2
:1019500021B381E090E002C0880F991F6A95E2F7F9
:101960008095822381BB0895683008F070C0843070
:1019700008F06DC0813009F1813030F08230B1F172
:10198000833009F064C04BC0413059F42BB381E07F
:1019900090E002C0880F991F6A95E2F7282B2BBBB5
:1019A00008952BB381E090E002C0880F991F6A95DB
:1019B000E2F7809582238BBB0895413059F428B318
:1019C00081E090E002C0880F991F6A95E2F7282B0A
:1019D00028BB089528B381E090E002C0880F991FCA
:1019E0006A95E2F78095822388BB0895413059F4C7
:1019F00025B381E090E002C0880F991F6A95E2F755
:101A0000282B25BB089525B381E090E002C0880F04
:101A1000991F6A95E2F78095822385BB089541302E
:101A200059F422B381E090E002C0880F991F6A95B3
:101A3000E2F7282B22BB089522B381E090E002C098
:101A4000880F991F6A95E2F78095822382BB0895DB
:101A50006830D0F48430C0F4813049F0813028F00F
:101A6000823039F0833081F406C089B305C086B373
:101A700003C083B301C080B390E002C09595879501
:101A80006A95E2F78170089580E00895843080F4CB
:101A9000813049F0813028F0823039F0833041F4D0
:101AA00006C06ABB089567BB089564BB089561BB17
:101AB0000895843080F4813049F0813028F08230FC
:101AC00039F0833041F406C06BBB089568BB0895BC
:101AD00065BB089562BB0895843088F4813049F075
:101AE000813028F0823039F0833049F406C089B360
:101AF000089586B3089583B3089580B3089580E070
:101B0000089588E08FBD8DE18EBD85E89EE197BD8B
:101B100086BD89B7806189BF1DBC1CBC0895FC01CE
:101B2000818192818436910521F08059914031F470
:101B300002C080E201C082E080B911B88081880FC4
:101B400082B984E086BF089584EA86BF06B607FEA0
:101B5000FDCF089584E986BF089583B984E886BFE0
:101B600006B607FEFDCF089584EC86BF06B607FED5
:101B7000FDCF83B1089584E886BF06B607FEFDCF8A
:101B800083B1089581B1887F0895482F6AE00E944B
:101B90009F13282F30E084E0220F331F8A95E1F74E
:101BA000842F0E949F13892F822B08951F930E94D8
:101BB000A40D80ED0E94AD0D86E00E94AD0D0E9447
:101BC000A40D81ED0E94AD0D0E94BB0D182F0E9447
:101BD000AA0D812F82958F702AE0829FC001112467
:101BE0001F70810F1F9108951F930E94A40D80ED17
:101BF0000E94AD0D85E00E94AD0D0E94A40D81ED07
:101C00000E94AD0D0E94BB0D182F0E94AA0D812FBE
:101C100082958F702AE0829FC00111241F70810F6E
:101C20001F9108951F930E94A40D80ED0E94AD0D99
:101C300084E00E94AD0D0E94A40D81ED0E94AD0DC7
:101C40000E94BB0D182F0E94AA0D812F82958F70C4
:101C50002AE0829FC00111241F70810F1F910895F7
:101C60001F930E94A40D80ED0E94AD0D82E00E94A2
:101C7000AD0D0E94A40D81ED0E94AD0D0E94BB0D23
:101C8000182F0E94AA0D812F82958F702AE0829FC3
:101C9000C00111241F70810F1F9108951F930E948E
:101CA000A40D80ED0E94AD0D81E00E94AD0D0E945B
:101CB000A40D81ED0E94AD0D0E94BB0D182F0E9456
:101CC000AA0D812F82958F702AE0829FC001112476
:101CD0001F70810F1F9108951F930E94A40D80ED26
:101CE0000E94AD0D80E00E94AD0D0E94A40D81ED1B
:101CF0000E94AD0D0E94BB0D182F0E94AA0D812FCE
:101D000082958F702AE0829FC00111241F70810F7D
:101D10001F910895FF920F931F93182F062FF42EF3
:101D20000E94A40D80ED0E94AD0D84E00E94AD0DD7
:101D3000812F0E94C50D0E94AD0D802F0E94C50D00
:101D40000E94AD0D8F2D0E94C50D0E94AD0D0E9409
:101D5000AA0D1F910F91FF900895FF920F931F936B
:101D6000F82E062F142F0E94A40D80ED0E94AD0DB9
:101D700080E00E94AD0D812F0E94C50D0E94AD0D27
:101D8000802F0E94C50D0E94AD0D8F2D0E94C50DA4
:101D90000E94AD0D0E94AA0D1F910F91FF90089512
:101DA000DF93CF9300D00F92CDB7DEB7DE0111964F
:101DB000E9E1F3E083E001900D928150E1F7CE017B
:101DC00001960E948F0D0F900F900F90CF91DF9191
:101DD0000895889A90980895909A089590980895F3
:101DE000DF92EF92FF920F931F93D82E80E060E076
:101DF00041E00E94B40CE0EDEE2EE7E0FE2EC701BC
:101E00000197F1F780E061E041E00E94B40CC70166
:101E10000197F1F70D2D10E0A8014071507074E0AA
:101E2000559547957A95E1F780E062E00E94B40C01
:101E3000A8014072507065E0559547956A95E1F7A5
:101E400080E063E00E94B40CA8014074507036E05A
:101E5000559547953A95E1F780E064E00E94B40C0F
:101E60004D2D441F4427441F80E065E00E94B40CC0
:101E7000C7010197F1F780E061E040E00E94B40CF7
:101E8000C7010197F1F780E061E041E00E94B40CE6
:101E9000C7010197F1F781E0D82280E062E04D2D83
:101EA0000E94B40CA801427050705595479580E08F
:101EB00063E00E94B40CA80144705070559547959A
:101EC0005595479580E064E00E94B40C087010704E
:101ED00083E0159507958A95E1F780E065E0402F4E
:101EE0000E94B40CC7010197F1F780E061E040E087
:101EF0000E94B40CC7010197F1F71F910F91FF9059
:101F0000EF90DF9008951F93CF93DF93EC0110E0E3
:101F100003C00E94F00E1F5FFE01E10FF11D8081E2
:101F20008823B9F7DF91CF911F910895AF92BF92A7
:101F3000CF92DF92EF92FF920F931F93DF93CF9395
:101F4000CDB7DEB760970FB6F894DEBF0FBECDBF3A
:101F50007B018C010E944B032DB73EB728503040C7
:101F60000FB6F8943EBF0FBE2DBFCDB6DEB60894B7
:101F7000C11CD11C5E010894A11CB11CEDB7FEB7B9
:101F8000B282A1822EE631E0F6013383228375838B
:101F90006483882777FD8095982F0E94ED029B012E
:101FA000AC01C801B7010E94950120E030E048EC87
:101FB00052E40E94F3010E944B03F601778366838B
:101FC0000E942A142DB73EB7285F3F4F0FB6F894F2
:101FD0003EBF0FBE2DBFC5010E94830F60960FB696
:101FE000F894DEBF0FBECDBFCF91DF911F910F914F
:101FF000FF90EF90DF90CF90BF90AF9008950F9338
:102000001F93DF93CF93CDB7DEB760970FB6F894E9
:10201000DEBF0FBECDBF8E010F5F1F4FB8014AE07C
:1020200050E00E940914C8010E94830F60960FB609
:10203000F894DEBF0FBECDBFCF91DF911F910F91FE
:102040000895DF92EF92FF920F931F93D82E80E0B6
:1020500060E040E00E94B40C30EDE32E37E0F32E58
:10206000C7010197F1F780E061E041E00E94B40C04
:10207000C7010197F1F70D2D10E0A80140715070D4
:1020800024E0559547952A95E1F780E062E00E94AB
:10209000B40CA8014072507095E0559547959A95FB
:1020A000E1F780E063E00E94B40CA8014074507036
:1020B00086E0559547958A95E1F780E064E00E94B7
:1020C000B40C4D2D441F4427441F80E065E00E945E
:1020D000B40CC7010197F1F780E061E040E00E9495
:1020E000B40CC7010197F1F780E061E041E00E9484
:1020F000B40CC7010197F1F781E0D82280E062E0DB
:102100004D2D0E94B40CA801427050705595479512
:1021100080E063E00E94B40CA801447050705595B3
:1021200047955595479580E064E00E94B40C08708F
:102130001070F3E015950795FA95E1F780E065E0FA
:10214000402F0E94B40CC7010197F1F780E061E0D5
:1021500040E00E94B40CC7010197F1F71F910F9165
:10216000FF90EF90DF90089581E00E942110089584
:10217000813039F0813050F0823029F0833031F4F1
:1021800004C0605C03C0605F01C0605B862F806834
:102190000E94211008950F931F938A010E94B81086
:1021A000C8010E94830F1F910F91089580E060E0A5
:1021B00041E00E94400C80E061E041E00E94400C60
:1021C00080E49CE90197F1F780E062E041E00E9441
:1021D000400C80E063E041E00E94400C80E064E05D
:1021E00041E00E94400C80E065E041E00E94400C2C
:1021F00083E30E94211082E30E94211088E20E9462
:1022000021108CE00E94211081E00E94211008958D
:102210001F920F920FB60F9211241F932F933F938B
:102220004F935F936F937F938F939F93AF93BF93DE
:10223000EF93FF9310913603113021F40E94B40BF9
:102240001093350380913703813029F410923703BE
:102250008EB58A7F8EBDFF91EF91BF91AF919F9117
:102260008F917F916F915F914F913F912F911F912E
:102270000F900FBE0F901F901895CF92DF92EF92A4
:10228000FF920F931F93CF93DF930E94D6100E946B
:10229000E90E0E94D00E0E9441088FB780688FBF60
:1022A000C8ECD0E005E090E4E92E9CE9F92E80E24C
:1022B000C82E8EE4D82E0E94FD080E94A20804C0F9
:1022C0000E946F050E94190880913A038823C1F388
:1022D000823009F46AC0833018F4813061F706C097
:1022E000833009F402C1843031F791C10E946F0537
:1022F00080E060E046E751E00E94CB1081E060E0C2
:1023000048E851E00E94CB1088E99AE3FE0131973A
:10231000F1F70197D9F70E94B4100E9458080E9463
:102320006F05B0990EC00E94B4100E946F050E9404
:10233000100B0E946B08B499F8CF0E94B4100E9451
:102340005808B19917C00E94B4100E944B0880E150
:1023500097E2FE013197F1F70197D9F70E946F05D7
:102360000E942909882321F4B499F8CF0E94B4105F
:102370000E945808B29913C00E94B41080E197E2FD
:10238000FE013197F1F70197D9F70E946F050E947E
:102390004D0BB499FACF0E94B4100E9458080E94C5
:1023A0002E08882309F4BBCFBFC180E060E049E973
:1023B00051E00E94CB1081E060E048E851E00E94CB
:1023C000CB1088E893E1FE013197F1F70197D9F737
:1023D00087E160E00E94DB0511C00E942E0888237F
:1023E00089F40E9419080E946F0580911F038130B3
:1023F00029F410923A0310921F0304C080913A030B
:10240000882359F380911F03813009F495C180918D
:102410003A038230A9F0833020F4813009F05AC0A9
:1024200006C0833041F1843009F054C041C090E0CF
:1024300080911703882309F491E09093170335C026
:1024400080911703882321F081E00E943B0503C09F
:1024500081E00E944F0580E06BE04BEA51E00E9472
:10246000CB100E94BB058CED95E0FE013197F1F792
:102470000197D9F71AC080911703882321F080E0D3
:102480000E943B0503C080E00E944F0580E06BE0A6
:102490004BEA51E00E94CB100E94BB058CED95E009
:1024A000FE013197F1F70197D9F710923A0312C064
:1024B00080911D03882359F48DE393E06CE373E06E
:1024C0000E94110600933A0381E080931F0381E08C
:1024D00080931D030E942E08882309F02DC180914E
:1024E0001F03813009F08ACF25C10E946F050E9429
:1024F000810D80E060E041EB51E00E94CB1081E073
:1025000060E048E851E00E94CB1088E99AE3FE01C0
:102510003197F1F70197D9F70E94B4100E94330C5C
:1025200081E060E043EC51E00E94CB100E94F70B89
:10253000109235031092360310923703109238032D
:1025400010923903DF9811E00E946F05B09909C01D
:102550001093350310933603109237038EB58560C0
:102560008EBD80913503813021F40E94040C1092BD
:102570003503B19906C010933703109235031092BA
:102580003603B2990AC00E94330C0E94F70B1092D6
:1025900035031092360310923703B3990AC0C7016E
:1025A0000197F1F7B39905C0809138038127809393
:1025B0003803809138038130A9F4DF9A80912F038A
:1025C0008823A9F480913003882389F4809139030A
:1025D000813069F40E94EC0EC6010197F1F70E9468
:1025E000EE0E05C080913803882309F4DF980E941D
:1025F0002E08882311F0DF989FC080911F0381303F
:1026000009F0A2CF10923A0310921F0328C00E9433
:102610006F050E947D0680E060E044ED51E00E947D
:10262000CB1081E060E048E851E00E94CB1088E9DF
:102630009AE3FE013197F1F70197D9F70E94B410A0
:1026400080E060E046EE51E00E94CB1002C00E94A4
:102650006F050E948A068823D1F3823019F40E9404
:10266000B4106AC01092230381E0809325030E9476
:1026700074060E946F05809123038823C1F00E9495
:10268000B41085EF91E00E94830FB399FECF0E94B2
:10269000EE0E0E94B41083E092E00E94830F88E95E
:1026A0009AE3FE013197F1F70197D9F73DC080E039
:1026B00064E00E94B810809120038A3018F480E30F
:1026C0000E94F00E8091200390E00E94FF0F8AE3A9
:1026D0000E94F00E809121038A3018F480E30E945A
:1026E000F00E8091210390E00E94FF0F8AE30E9488
:1026F000F00E809122038A3018F480E30E94F00EDD
:102700008091220390E00E94FF0F80ED97E0FE0190
:102710003197F1F70197D9F70E942E08882309F421
:10272000A8CF0E947D0615BC80911F03813021F443
:102730000E94B41010921F0310923A03BCCD991B53
:1027400079E004C0991F961708F0961B881F7A95A8
:10275000C9F78095089597FB092E07260AD077FDC3
:1027600004D00CD006D000201AF4709561957F4FEC
:102770000895F6F7909581959F4F0895AA1BBB1B6E
:1027800051E107C0AA1FBB1FA617B70710F0A61B71
:10279000B70B881F991F5A95A9F780959095BC0192
:1027A000CD0108952F923F924F925F926F927F9248
:1027B0008F929F92AF92BF92CF92DF92EF92FF9251
:1027C0000F931F93CF93DF93CDB7DEB7CA1BDB0BFD
:1027D0000FB6F894DEBF0FBECDBF09942A883988A2
:1027E00048885F846E847D848C849B84AA84B984A9
:1027F000C884DF80EE80FD800C811B81AA81B981B5
:10280000CE0FD11D0FB6F894DEBF0FBECDBFED01C8
:102810000895FB019F01E8944230C4F04532B4F4BE
:102820004A3029F497FB1EF4909581959F4F642FB1
:1028300077270E94BE13805D8A330CF0895D8193F7
:10284000CB010097A1F716F45DE251931082C90104
:102850000C944116AEE0B0E0E0E3F4E10C94E01338
:102860000D891E8986E08C831A8309838FEF9FE789
:102870009E838D839E01275E3F4FCE0101966F8917
:10288000788DA9010E944E142F813885020F131FE5
:10289000F80110822E96E4E00C94FC13ABE0B0E05B
:1028A000E4E5F4E10C94D2133C012B015A01FC0144
:1028B00017821682838181FD03C06FEF7FEFC6C14F
:1028C0009AE0892E1E010894211C311CF3012381FA
:1028D000F20123FD859123FF81912F01882309F4C3
:1028E000B2C1853239F423FD859123FF81912F01F7
:1028F000853229F490E0B3010E945116E7CF982F5A
:10290000FF24EE249924FFE1FF15D0F09B3269F0FB
:102910009C3228F4903259F0933291F40EC09D32DB
:1029200049F0903369F441E024C052E0F52A84E094
:10293000F82A28C098E0F92A25C0E0E1FE2A22C042
:10294000F7FC29C0892F80538A3070F4F6FE05C049
:10295000989C902C1124980E15C0E89CE02C112412
:10296000E80EF0E2FF2A0EC09E3229F4F6FC6BC19D
:1029700040E4F42A07C09C3619F450E8F52A02C056
:10298000983649F4F20123FD959123FF91912F018F
:10299000992309F0B8CF892F8554833018F08052DD
:1029A000833038F444E050E0A40EB51E5FE3598351
:1029B0000FC0933631F0933779F0933509F056C054
:1029C00020C0F5018081898342E050E0A40EB51E4D
:1029D000610101E010E012C0F501C080D180F6FC79
:1029E00003C06FEF7FEF02C0692D70E042E050E05E
:1029F000A40EB51EC6010E9436168C015FE7F522B3
:102A000014C0F501C080D180F6FC03C06FEF7FEFEA
:102A100002C0692D70E042E050E0A40EB51EC60170
:102A20000E942B168C0150E8F52AF3FE07C01AC04D
:102A300080E290E0B3010E945116EA948E2D90E05E
:102A400008171907A8F30EC0F601F7FC8591F7FEE9
:102A500081916F0190E0B3010E945116E110EA9458
:102A6000015010400115110579F7EAC0943611F0B4
:102A7000993669F5F7FE08C0F50120813181428160
:102A8000538184E090E00AC0F501808191819C012E
:102A9000442737FD4095542F82E090E0A80EB91EE0
:102AA0009FE6F92257FF09C0509540953095219532
:102AB0003F4F4F4F5F4FE0E8FE2ACA01B901A10125
:102AC0002AE030E00E947D16D82ED21840C09537FB
:102AD00029F41F2D1F7E2AE030E01DC01F2D197F15
:102AE0009F3661F0903720F4983509F0ACC00FC0E4
:102AF000903739F0983709F0A6C004C028E030E0DC
:102B00000AC0106114FD146020E130E004C014FD1F
:102B1000166020E132E017FF08C0F5016081718185
:102B20008281938144E050E008C0F5018081918169
:102B3000BC0180E090E042E050E0A40EB51EA1018F
:102B40000E947D16D82ED2188FE7F82EF122F6FEBD
:102B50000BC05EEFF522D91438F4F4FE07C0F2FC86
:102B600005C08FEEF82202C01D2D01C0192DF4FE04
:102B70000DC0FE01ED0DF11D8081803319F499EE39
:102B8000F92208C01F5FF2FE05C003C08F2D8678B2
:102B900009F01F5F0F2DF3FC14C0F0FE0FC01E15CF
:102BA00010F09D2C0BC09D2C9E0C911A1E2D06C062
:102BB00080E290E0B3010E9451161F5F1E15C0F322
:102BC00004C01E1510F4E11A01C0EE2404FF0FC06A
:102BD00080E390E0B3010E94511602FF1DC001FD89
:102BE00003C088E790E00EC088E590E00BC0802F1E
:102BF000867891F001FF02C08BE201C080E2F7FC11
:102C00008DE290E0B3010E94511606C080E390E08F
:102C1000B3010E9451169A94D914C0F3DA94F101C9
:102C2000ED0DF11D808190E0B3010E945116DD2071
:102C3000A9F706C080E290E0B3010E945116EA9421
:102C4000EE20C1F743CEF30166817781CB012B964D
:102C5000E2E10C94EE13FC0105906150704001100C
:102C6000D8F7809590958E0F9F1F0895FC016150B5
:102C7000704001900110D8F7809590958E0F9F1F9E
:102C80000895DC01FC01672F71917723E1F73297FA
:102C900004C07C916D9370836291AE17BF07C8F337
:102CA00008950F931F93CF93DF938C01EB018B81DA
:102CB00081FF1BC082FF0DC02E813F818C819D81D1
:102CC0002817390764F4E881F9810193F983E883CF
:102CD00006C0E885F985802F0995892B31F48E810E
:102CE0009F8101969F838E8302C00FEF1FEFC80163
:102CF000DF91CF911F910F910895FA01AA272830F3
:102D000051F1203181F1E8946F936E7F6E5F7F4FB8
:102D10008F4F9F4FAF4FB1E03ED0B4E03CD0670F34
:102D2000781F891F9A1FA11D680F791F8A1F911D87
:102D3000A11D6A0F711D811D911DA11D20D009F4D7
:102D400068943F912AE0269F11243019305D319319
:102D5000DEF6CF010895462F4770405D4193B3E002
:102D60000FD0C9F7F6CF462F4F70405D4A3318F0A9
:102D7000495D31FD4052419302D0A9F7EACFB4E05A
:102D8000A6959795879577956795BA95C9F7009712
:102D90006105710508959B01AC010A2E06945795B3
:102DA000479537952795BA95C9F7620F731F841F0A
:0A2DB000951FA01D0895F894FFCFB1
:102DBA00416C61726D2052696E67696E67202020CE
:102DCA000020202020202053544F50202020202053
:102DDA002000416C61726D205365743A20004848A6
:102DEA003A4D4D0049742057696C6C2052696E67E0
:102DFA0020696E002048727300204D696E00202001
:102E0A000053657420436F6D706C657465642E00A1
:102E1A0054696D653A2048483A4D4D3A5353004437
:102E2A006174653A2044442F4D4D2F595920200092
:102E3A00312D444953504C41592000322D534554A9
:102E4A0000335F31322D4872200054696D653A2093
:102E5A00003A0053656C656374204D6F64650031F8
:102E6A002D436C6F636B00322D416C61726D0033C0
:102E7A002D53746F70576174636800342D43440096
:102E8A0020200053657420436F6D706C657465640F
:102E9A002E00446174653A20002F00416D00506D88
:102EAA00003A002030303A30303A30300053746102
:102EBA0072742053746F70205265736574002564B0
:102ECA002E2530326400202020436C6F636B204D26
:102EDA006F64652020202000202020202020202030
:102EEA00202020202020202000202020416C6172F8
:102EFA006D204D6F64652020202000202020202096
:102F0A00002020202053746F70576174636820205A
:102F1A0020200053746172742053746F70205265BC
:102F2A0073657400202020436F756E7420446F7798
:102F3A006E2020202000536574203A2048483A4DDC
:102F4A004D3A53530020202054696D65277320752C
:102F5A007021002020202053544F50504544000037
:102F6A000000000000000000010202030303030442
:102F7A0004040404040404050505050505050505FE
:102F8A0005050505050505060606060606060606DE
:102F9A0006060606060606060606060606060606C7
:102FAA0006060606060606070707070707070707AE
:102FBA000707070707070707070707070707070797
:102FCA000707070707070707070707070707070787
:102FDA000707070707070707070707070707070777
:102FEA00070707070707070808080808080808085E
:102FFA000808080808080808080808080808080847
:10300A000808080808080808080808080808080836
:10301A000808080808080808080808080808080826
:10302A000808080808080808080808080808080816
:10303A000808080808080808080808080808080806
:10304A0008080808080808080808080808080808F6
:10305A0008080808080808080808080808080808E6
:0C306A000808080808080801FF640100BD
:00000001FF
